{
  "contractName": "Cifar",
  "abi": [
    {
      "inputs": [],
      "stateMutability": "nonpayable",
      "type": "constructor"
    },
    {
      "anonymous": false,
      "inputs": [
        {
          "indexed": true,
          "internalType": "address",
          "name": "owner",
          "type": "address"
        },
        {
          "indexed": true,
          "internalType": "address",
          "name": "approved",
          "type": "address"
        },
        {
          "indexed": true,
          "internalType": "uint256",
          "name": "tokenId",
          "type": "uint256"
        }
      ],
      "name": "Approval",
      "type": "event"
    },
    {
      "anonymous": false,
      "inputs": [
        {
          "indexed": true,
          "internalType": "address",
          "name": "owner",
          "type": "address"
        },
        {
          "indexed": true,
          "internalType": "address",
          "name": "operator",
          "type": "address"
        },
        {
          "indexed": false,
          "internalType": "bool",
          "name": "approved",
          "type": "bool"
        }
      ],
      "name": "ApprovalForAll",
      "type": "event"
    },
    {
      "anonymous": false,
      "inputs": [
        {
          "indexed": true,
          "internalType": "address",
          "name": "previousOwner",
          "type": "address"
        },
        {
          "indexed": true,
          "internalType": "address",
          "name": "newOwner",
          "type": "address"
        }
      ],
      "name": "OwnershipTransferred",
      "type": "event"
    },
    {
      "anonymous": false,
      "inputs": [
        {
          "indexed": true,
          "internalType": "address",
          "name": "from",
          "type": "address"
        },
        {
          "indexed": true,
          "internalType": "address",
          "name": "to",
          "type": "address"
        },
        {
          "indexed": true,
          "internalType": "uint256",
          "name": "tokenId",
          "type": "uint256"
        }
      ],
      "name": "Transfer",
      "type": "event"
    },
    {
      "inputs": [
        {
          "internalType": "address",
          "name": "to",
          "type": "address"
        },
        {
          "internalType": "uint256",
          "name": "tokenId",
          "type": "uint256"
        }
      ],
      "name": "approve",
      "outputs": [],
      "stateMutability": "nonpayable",
      "type": "function"
    },
    {
      "inputs": [
        {
          "internalType": "address",
          "name": "owner",
          "type": "address"
        }
      ],
      "name": "balanceOf",
      "outputs": [
        {
          "internalType": "uint256",
          "name": "",
          "type": "uint256"
        }
      ],
      "stateMutability": "view",
      "type": "function",
      "constant": true
    },
    {
      "inputs": [
        {
          "internalType": "uint256",
          "name": "tokenId",
          "type": "uint256"
        }
      ],
      "name": "getApproved",
      "outputs": [
        {
          "internalType": "address",
          "name": "",
          "type": "address"
        }
      ],
      "stateMutability": "view",
      "type": "function",
      "constant": true
    },
    {
      "inputs": [
        {
          "internalType": "address",
          "name": "owner",
          "type": "address"
        },
        {
          "internalType": "address",
          "name": "operator",
          "type": "address"
        }
      ],
      "name": "isApprovedForAll",
      "outputs": [
        {
          "internalType": "bool",
          "name": "",
          "type": "bool"
        }
      ],
      "stateMutability": "view",
      "type": "function",
      "constant": true
    },
    {
      "inputs": [],
      "name": "name",
      "outputs": [
        {
          "internalType": "string",
          "name": "",
          "type": "string"
        }
      ],
      "stateMutability": "view",
      "type": "function",
      "constant": true
    },
    {
      "inputs": [],
      "name": "owner",
      "outputs": [
        {
          "internalType": "address",
          "name": "",
          "type": "address"
        }
      ],
      "stateMutability": "view",
      "type": "function",
      "constant": true
    },
    {
      "inputs": [
        {
          "internalType": "uint256",
          "name": "tokenId",
          "type": "uint256"
        }
      ],
      "name": "ownerOf",
      "outputs": [
        {
          "internalType": "address",
          "name": "",
          "type": "address"
        }
      ],
      "stateMutability": "view",
      "type": "function",
      "constant": true
    },
    {
      "inputs": [],
      "name": "renounceOwnership",
      "outputs": [],
      "stateMutability": "nonpayable",
      "type": "function"
    },
    {
      "inputs": [
        {
          "internalType": "address",
          "name": "from",
          "type": "address"
        },
        {
          "internalType": "address",
          "name": "to",
          "type": "address"
        },
        {
          "internalType": "uint256",
          "name": "tokenId",
          "type": "uint256"
        }
      ],
      "name": "safeTransferFrom",
      "outputs": [],
      "stateMutability": "nonpayable",
      "type": "function"
    },
    {
      "inputs": [
        {
          "internalType": "address",
          "name": "from",
          "type": "address"
        },
        {
          "internalType": "address",
          "name": "to",
          "type": "address"
        },
        {
          "internalType": "uint256",
          "name": "tokenId",
          "type": "uint256"
        },
        {
          "internalType": "bytes",
          "name": "_data",
          "type": "bytes"
        }
      ],
      "name": "safeTransferFrom",
      "outputs": [],
      "stateMutability": "nonpayable",
      "type": "function"
    },
    {
      "inputs": [
        {
          "internalType": "address",
          "name": "operator",
          "type": "address"
        },
        {
          "internalType": "bool",
          "name": "approved",
          "type": "bool"
        }
      ],
      "name": "setApprovalForAll",
      "outputs": [],
      "stateMutability": "nonpayable",
      "type": "function"
    },
    {
      "inputs": [],
      "name": "symbol",
      "outputs": [
        {
          "internalType": "string",
          "name": "",
          "type": "string"
        }
      ],
      "stateMutability": "view",
      "type": "function",
      "constant": true
    },
    {
      "inputs": [
        {
          "internalType": "uint256",
          "name": "index",
          "type": "uint256"
        }
      ],
      "name": "tokenByIndex",
      "outputs": [
        {
          "internalType": "uint256",
          "name": "",
          "type": "uint256"
        }
      ],
      "stateMutability": "view",
      "type": "function",
      "constant": true
    },
    {
      "inputs": [
        {
          "internalType": "address",
          "name": "owner",
          "type": "address"
        },
        {
          "internalType": "uint256",
          "name": "index",
          "type": "uint256"
        }
      ],
      "name": "tokenOfOwnerByIndex",
      "outputs": [
        {
          "internalType": "uint256",
          "name": "",
          "type": "uint256"
        }
      ],
      "stateMutability": "view",
      "type": "function",
      "constant": true
    },
    {
      "inputs": [],
      "name": "totalSupply",
      "outputs": [
        {
          "internalType": "uint256",
          "name": "",
          "type": "uint256"
        }
      ],
      "stateMutability": "view",
      "type": "function",
      "constant": true
    },
    {
      "inputs": [
        {
          "internalType": "address",
          "name": "from",
          "type": "address"
        },
        {
          "internalType": "address",
          "name": "to",
          "type": "address"
        },
        {
          "internalType": "uint256",
          "name": "tokenId",
          "type": "uint256"
        }
      ],
      "name": "transferFrom",
      "outputs": [],
      "stateMutability": "nonpayable",
      "type": "function"
    },
    {
      "inputs": [
        {
          "internalType": "address",
          "name": "newOwner",
          "type": "address"
        }
      ],
      "name": "transferOwnership",
      "outputs": [],
      "stateMutability": "nonpayable",
      "type": "function"
    },
    {
      "inputs": [
        {
          "internalType": "uint256",
          "name": "numberOfTokens",
          "type": "uint256"
        }
      ],
      "name": "mintCifar10",
      "outputs": [],
      "stateMutability": "payable",
      "type": "function",
      "payable": true
    },
    {
      "inputs": [
        {
          "internalType": "uint256",
          "name": "tokenId",
          "type": "uint256"
        }
      ],
      "name": "tokenURI",
      "outputs": [
        {
          "internalType": "string",
          "name": "",
          "type": "string"
        }
      ],
      "stateMutability": "view",
      "type": "function",
      "constant": true
    },
    {
      "inputs": [
        {
          "internalType": "bytes4",
          "name": "interfaceId",
          "type": "bytes4"
        }
      ],
      "name": "supportsInterface",
      "outputs": [
        {
          "internalType": "bool",
          "name": "",
          "type": "bool"
        }
      ],
      "stateMutability": "view",
      "type": "function",
      "constant": true
    },
    {
      "inputs": [
        {
          "internalType": "uint256",
          "name": "tokenId",
          "type": "uint256"
        },
        {
          "internalType": "string",
          "name": "_tokenURI",
          "type": "string"
        }
      ],
      "name": "setTokenURI",
      "outputs": [],
      "stateMutability": "nonpayable",
      "type": "function"
    },
    {
      "inputs": [
        {
          "internalType": "address",
          "name": "_owner",
          "type": "address"
        }
      ],
      "name": "tokensOfOwner",
      "outputs": [
        {
          "internalType": "uint256[]",
          "name": "",
          "type": "uint256[]"
        }
      ],
      "stateMutability": "view",
      "type": "function",
      "constant": true
    },
    {
      "inputs": [],
      "name": "getMaxNumToken",
      "outputs": [
        {
          "internalType": "uint256",
          "name": "",
          "type": "uint256"
        }
      ],
      "stateMutability": "view",
      "type": "function",
      "constant": true
    },
    {
      "inputs": [],
      "name": "getMintPrice",
      "outputs": [
        {
          "internalType": "uint256",
          "name": "",
          "type": "uint256"
        }
      ],
      "stateMutability": "view",
      "type": "function",
      "constant": true
    },
    {
      "inputs": [],
      "name": "getStartIndex",
      "outputs": [
        {
          "internalType": "uint256",
          "name": "",
          "type": "uint256"
        }
      ],
      "stateMutability": "view",
      "type": "function",
      "constant": true
    },
    {
      "inputs": [
        {
          "internalType": "string",
          "name": "provenanceHash",
          "type": "string"
        }
      ],
      "name": "setProvenanceHash",
      "outputs": [],
      "stateMutability": "nonpayable",
      "type": "function"
    },
    {
      "inputs": [],
      "name": "getProvenanceHash",
      "outputs": [
        {
          "internalType": "string",
          "name": "",
          "type": "string"
        }
      ],
      "stateMutability": "view",
      "type": "function",
      "constant": true
    },
    {
      "inputs": [
        {
          "internalType": "string",
          "name": "concatHashUri",
          "type": "string"
        }
      ],
      "name": "setConcatHashURI",
      "outputs": [],
      "stateMutability": "nonpayable",
      "type": "function"
    },
    {
      "inputs": [],
      "name": "getConcatHashURI",
      "outputs": [
        {
          "internalType": "string",
          "name": "",
          "type": "string"
        }
      ],
      "stateMutability": "view",
      "type": "function",
      "constant": true
    },
    {
      "inputs": [],
      "name": "getMaxMintableAtOnce",
      "outputs": [
        {
          "internalType": "uint256",
          "name": "",
          "type": "uint256"
        }
      ],
      "stateMutability": "view",
      "type": "function",
      "constant": true
    }
  ],
  "bytecode": "0x603c600d55655af3107a4000600e556003600f55600560105560a0604081905260006080819052620000349160119162000139565b50604080516020810191829052600090819052620000559160129162000139565b503480156200006357600080fd5b50604080518082018252600581526421b4b330b960d91b6020808301918252835180850190945260018452604360f81b908401528151919291620000aa9160009162000139565b508051620000c090600190602084019062000139565b505050620000dd620000d7620000e360201b60201c565b620000e7565b6200021c565b3390565b600b80546001600160a01b038381166001600160a01b0319831681179093556040519116919082907f8be0079c531659141344cd1fd0a4f28419497f9722a3daafe3b4186f6b6457e090600090a35050565b8280546200014790620001df565b90600052602060002090601f0160209004810192826200016b5760008555620001b6565b82601f106200018657805160ff1916838001178555620001b6565b82800160010185558215620001b6579182015b82811115620001b657825182559160200191906001019062000199565b50620001c4929150620001c8565b5090565b5b80821115620001c45760008155600101620001c9565b600181811c90821680620001f457607f821691505b602082108114156200021657634e487b7160e01b600052602260045260246000fd5b50919050565b612286806200022c6000396000f3fe60806040526004361061015d5760003560e01c806301ffc9a71461016257806306fdde0314610197578063081812fc146101b9578063095ea7b3146101f15780631096952314610213578063162094c41461023357806318160ddd1461025357806323b872dd146102725780632f745c591461029257806342842e0e146102b25780634ee63aa9146102d25780634f6ccce7146102e75780636352211e1461030757806370a0823114610327578063715018a6146103475780637d13db0f1461035c578063815e56d01461036f5780638462151c1461038f5780638da5cb5b146103bc57806394b3fbc2146103d157806395d89b41146103e6578063a22cb465146103fb578063a7f93ebd1461041b578063b88d4fde14610430578063b92e15af14610450578063c87b56dd14610465578063d75275ad14610485578063e985e9c51461049a578063f2fde38b146104ba578063f3b5b58e146104da575b600080fd5b34801561016e57600080fd5b5061018261017d366004611e46565b6104ef565b60405190151581526020015b60405180910390f35b3480156101a357600080fd5b506101ac610500565b60405161018e9190611fef565b3480156101c557600080fd5b506101d96101d4366004611eb4565b610592565b6040516001600160a01b03909116815260200161018e565b3480156101fd57600080fd5b5061021161020c366004611e1c565b61061f565b005b34801561021f57600080fd5b5061021161022e366004611e80565b610730565b34801561023f57600080fd5b5061021161024e366004611ecd565b610776565b34801561025f57600080fd5b506008545b60405190815260200161018e565b34801561027e57600080fd5b5061021161028d366004611d29565b6107af565b34801561029e57600080fd5b506102646102ad366004611e1c565b6107e0565b3480156102be57600080fd5b506102116102cd366004611d29565b610876565b3480156102de57600080fd5b50600d54610264565b3480156102f357600080fd5b50610264610302366004611eb4565b610891565b34801561031357600080fd5b506101d9610322366004611eb4565b610924565b34801561033357600080fd5b50610264610342366004611cdb565b61099b565b34801561035357600080fd5b50610211610a22565b61021161036a366004611eb4565b610a5d565b34801561037b57600080fd5b5061021161038a366004611e80565b610bba565b34801561039b57600080fd5b506103af6103aa366004611cdb565b610bfc565b60405161018e9190611fab565b3480156103c857600080fd5b506101d9610cba565b3480156103dd57600080fd5b506101ac610cc9565b3480156103f257600080fd5b506101ac610cd8565b34801561040757600080fd5b50610211610416366004611de0565b610ce7565b34801561042757600080fd5b50600e54610264565b34801561043c57600080fd5b5061021161044b366004611d65565b610da8565b34801561045c57600080fd5b50600f54610264565b34801561047157600080fd5b506101ac610480366004611eb4565b610de0565b34801561049157600080fd5b50601054610264565b3480156104a657600080fd5b506101826104b5366004611cf6565b610deb565b3480156104c657600080fd5b506102116104d5366004611cdb565b610e19565b3480156104e657600080fd5b506101ac610eb9565b60006104fa82610ec8565b92915050565b60606000805461050f90612168565b80601f016020809104026020016040519081016040528092919081815260200182805461053b90612168565b80156105885780601f1061055d57610100808354040283529160200191610588565b820191906000526020600020905b81548152906001019060200180831161056b57829003601f168201915b5050505050905090565b600061059d82610eed565b6106035760405162461bcd60e51b815260206004820152602c60248201527f4552433732313a20617070726f76656420717565727920666f72206e6f6e657860448201526b34b9ba32b73a103a37b5b2b760a11b60648201526084015b60405180910390fd5b506000908152600460205260409020546001600160a01b031690565b600061062a82610924565b9050806001600160a01b0316836001600160a01b031614156106985760405162461bcd60e51b815260206004820152602160248201527f4552433732313a20617070726f76616c20746f2063757272656e74206f776e656044820152603960f91b60648201526084016105fa565b336001600160a01b03821614806106b457506106b48133610deb565b6107215760405162461bcd60e51b815260206004820152603860248201527f4552433732313a20617070726f76652063616c6c6572206973206e6f74206f776044820152771b995c881b9bdc88185c1c1c9bdd995908199bdc88185b1b60421b60648201526084016105fa565b61072b8383610f0a565b505050565b33610739610cba565b6001600160a01b03161461075f5760405162461bcd60e51b81526004016105fa90612054565b8051610772906011906020840190611b91565b5050565b3361077f610cba565b6001600160a01b0316146107a55760405162461bcd60e51b81526004016105fa90612054565b6107728282610f78565b6107b93382611003565b6107d55760405162461bcd60e51b81526004016105fa90612089565b61072b8383836110cd565b60006107eb8361099b565b821061084d5760405162461bcd60e51b815260206004820152602b60248201527f455243373231456e756d657261626c653a206f776e657220696e646578206f7560448201526a74206f6620626f756e647360a81b60648201526084016105fa565b506001600160a01b03919091166000908152600660209081526040808320938352929052205490565b61072b83838360405180602001604052806000815250610da8565b600061089c60085490565b82106108ff5760405162461bcd60e51b815260206004820152602c60248201527f455243373231456e756d657261626c653a20676c6f62616c20696e646578206f60448201526b7574206f6620626f756e647360a01b60648201526084016105fa565b600882815481106109125761091261220e565b90600052602060002001549050919050565b6000818152600260205260408120546001600160a01b0316806104fa5760405162461bcd60e51b815260206004820152602960248201527f4552433732313a206f776e657220717565727920666f72206e6f6e657869737460448201526832b73a103a37b5b2b760b91b60648201526084016105fa565b60006001600160a01b038216610a065760405162461bcd60e51b815260206004820152602a60248201527f4552433732313a2062616c616e636520717565727920666f7220746865207a65604482015269726f206164647265737360b01b60648201526084016105fa565b506001600160a01b031660009081526003602052604090205490565b33610a2b610cba565b6001600160a01b031614610a515760405162461bcd60e51b81526004016105fa90612054565b610a5b6000611278565b565b600f54811115610aaf5760405162461bcd60e51b815260206004820152601e60248201527f496e76616c696420616d6f756e7420746f206d696e74206174206f6e6365000060448201526064016105fa565b600d5481610abc60085490565b610ac691906120da565b1115610b145760405162461bcd60e51b815260206004820181905260248201527f507572636861736520776f756c6420657863656564206d617820737570706c7960448201526064016105fa565b3481600e54610b239190612106565b1115610b715760405162461bcd60e51b815260206004820152601f60248201527f45746865722076616c75652073656e74206973206e6f7420636f72726563740060448201526064016105fa565b60005b8181101561077257600d546008541015610ba857610b9a33610b95600c5490565b6112ca565b610ba8600c80546001019055565b80610bb28161219d565b915050610b74565b33610bc3610cba565b6001600160a01b031614610be95760405162461bcd60e51b81526004016105fa90612054565b8051610772906012906020840190611b91565b60606000610c098361099b565b905080610c2a5760408051600080825260208201909252905b509392505050565b6000816001600160401b03811115610c4457610c44612224565b604051908082528060200260200182016040528015610c6d578160200160208202803683370190505b50905060005b82811015610c2257610c8585826107e0565b828281518110610c9757610c9761220e565b602090810291909101015280610cac8161219d565b915050610c73565b50919050565b600b546001600160a01b031690565b60606011805461050f90612168565b60606001805461050f90612168565b6001600160a01b038216331415610d3c5760405162461bcd60e51b815260206004820152601960248201527822a9219b99189d1030b8383937bb32903a379031b0b63632b960391b60448201526064016105fa565b3360008181526005602090815260408083206001600160a01b03871680855290835292819020805460ff191686151590811790915590519081529192917f17307eab39ab6107e8899845ad3d59bd9653f200f220920489ca2b5937696c31910160405180910390a35050565b610db23383611003565b610dce5760405162461bcd60e51b81526004016105fa90612089565b610dda848484846112e4565b50505050565b60606104fa82611317565b6001600160a01b03918216600090815260056020908152604080832093909416825291909152205460ff1690565b33610e22610cba565b6001600160a01b031614610e485760405162461bcd60e51b81526004016105fa90612054565b6001600160a01b038116610ead5760405162461bcd60e51b815260206004820152602660248201527f4f776e61626c653a206e6577206f776e657220697320746865207a65726f206160448201526564647265737360d01b60648201526084016105fa565b610eb681611278565b50565b60606012805461050f90612168565b60006001600160e01b0319821663780e9d6360e01b14806104fa57506104fa82611479565b6000908152600260205260409020546001600160a01b0316151590565b600081815260046020526040902080546001600160a01b0319166001600160a01b0384169081179091558190610f3f82610924565b6001600160a01b03167f8c5be1e5ebec7d5bd14f71427d1e84f3dd0314c0f7b2291e5b200ac8c7c3b92560405160405180910390a45050565b610f8182610eed565b610fe45760405162461bcd60e51b815260206004820152602e60248201527f45524337323155524953746f726167653a2055524920736574206f66206e6f6e60448201526d32bc34b9ba32b73a103a37b5b2b760911b60648201526084016105fa565b6000828152600a60209081526040909120825161072b92840190611b91565b600061100e82610eed565b61106f5760405162461bcd60e51b815260206004820152602c60248201527f4552433732313a206f70657261746f7220717565727920666f72206e6f6e657860448201526b34b9ba32b73a103a37b5b2b760a11b60648201526084016105fa565b600061107a83610924565b9050806001600160a01b0316846001600160a01b031614806110b55750836001600160a01b03166110aa84610592565b6001600160a01b0316145b806110c557506110c58185610deb565b949350505050565b826001600160a01b03166110e082610924565b6001600160a01b0316146111485760405162461bcd60e51b815260206004820152602960248201527f4552433732313a207472616e73666572206f6620746f6b656e2074686174206960448201526839903737ba1037bbb760b91b60648201526084016105fa565b6001600160a01b0382166111aa5760405162461bcd60e51b8152602060048201526024808201527f4552433732313a207472616e7366657220746f20746865207a65726f206164646044820152637265737360e01b60648201526084016105fa565b6111b58383836114c9565b6111c0600082610f0a565b6001600160a01b03831660009081526003602052604081208054600192906111e9908490612125565b90915550506001600160a01b03821660009081526003602052604081208054600192906112179084906120da565b909155505060008181526002602052604080822080546001600160a01b0319166001600160a01b0386811691821790925591518493918716917fddf252ad1be2c89b69c2b068fc378daa952ba7f163c4a11628f55a4df523b3ef91a4505050565b600b80546001600160a01b038381166001600160a01b0319831681179093556040519116919082907f8be0079c531659141344cd1fd0a4f28419497f9722a3daafe3b4186f6b6457e090600090a35050565b6107728282604051806020016040528060008152506114d4565b6112ef8484846110cd565b6112fb84848484611507565b610dda5760405162461bcd60e51b81526004016105fa90612002565b606061132282610eed565b6113885760405162461bcd60e51b815260206004820152603160248201527f45524337323155524953746f726167653a2055524920717565727920666f72206044820152703737b732bc34b9ba32b73a103a37b5b2b760791b60648201526084016105fa565b6000828152600a6020526040812080546113a190612168565b80601f01602080910402602001604051908101604052809291908181526020018280546113cd90612168565b801561141a5780601f106113ef5761010080835404028352916020019161141a565b820191906000526020600020905b8154815290600101906020018083116113fd57829003601f168201915b50505050509050600061142b611614565b905080516000141561143e575092915050565b815115611470578082604051602001611458929190611f3f565b60405160208183030381529060405292505050919050565b6110c584611643565b60006001600160e01b031982166380ac58cd60e01b14806114aa57506001600160e01b03198216635b5e139f60e01b145b806104fa57506301ffc9a760e01b6001600160e01b03198316146104fa565b61072b83838361170e565b6114de83836117c6565b6114eb6000848484611507565b61072b5760405162461bcd60e51b81526004016105fa90612002565b60006001600160a01b0384163b1561160957604051630a85bd0160e11b81526001600160a01b0385169063150b7a029061154b903390899088908890600401611f6e565b602060405180830381600087803b15801561156557600080fd5b505af1925050508015611595575060408051601f3d908101601f1916820190925261159291810190611e63565b60015b6115ef573d8080156115c3576040519150601f19603f3d011682016040523d82523d6000602084013e6115c8565b606091505b5080516115e75760405162461bcd60e51b81526004016105fa90612002565b805181602001fd5b6001600160e01b031916630a85bd0160e11b1490506110c5565b506001949350505050565b60408051808201909152601581527468747470733a2f2f697066732e696f2f697066732f60581b602082015290565b606061164e82610eed565b6116b25760405162461bcd60e51b815260206004820152602f60248201527f4552433732314d657461646174613a2055524920717565727920666f72206e6f60448201526e3732bc34b9ba32b73a103a37b5b2b760891b60648201526084016105fa565b60006116bc611614565b905060008151116116dc5760405180602001604052806000815250611707565b806116e684611904565b6040516020016116f7929190611f3f565b6040516020818303038152906040525b9392505050565b6001600160a01b0383166117695761176481600880546000838152600960205260408120829055600182018355919091527ff3f7a9fe364faab93b216da50a3214154f22a0a2b415b23a84c8169e8b636ee30155565b61178c565b816001600160a01b0316836001600160a01b03161461178c5761178c8382611a01565b6001600160a01b0382166117a35761072b81611a9e565b826001600160a01b0316826001600160a01b03161461072b5761072b8282611b4d565b6001600160a01b03821661181c5760405162461bcd60e51b815260206004820181905260248201527f4552433732313a206d696e7420746f20746865207a65726f206164647265737360448201526064016105fa565b61182581610eed565b156118715760405162461bcd60e51b815260206004820152601c60248201527b115490cdcc8c4e881d1bdad95b88185b1c9958591e481b5a5b9d195960221b60448201526064016105fa565b61187d600083836114c9565b6001600160a01b03821660009081526003602052604081208054600192906118a69084906120da565b909155505060008181526002602052604080822080546001600160a01b0319166001600160a01b03861690811790915590518392907fddf252ad1be2c89b69c2b068fc378daa952ba7f163c4a11628f55a4df523b3ef908290a45050565b6060816119285750506040805180820190915260018152600360fc1b602082015290565b8160005b8115611952578061193c8161219d565b915061194b9050600a836120f2565b915061192c565b6000816001600160401b0381111561196c5761196c612224565b6040519080825280601f01601f191660200182016040528015611996576020820181803683370190505b5090505b84156110c5576119ab600183612125565b91506119b8600a866121b8565b6119c39060306120da565b60f81b8183815181106119d8576119d861220e565b60200101906001600160f81b031916908160001a9053506119fa600a866120f2565b945061199a565b60006001611a0e8461099b565b611a189190612125565b600083815260076020526040902054909150808214611a6b576001600160a01b03841660009081526006602090815260408083208584528252808320548484528184208190558352600790915290208190555b5060009182526007602090815260408084208490556001600160a01b039094168352600681528383209183525290812055565b600854600090611ab090600190612125565b60008381526009602052604081205460088054939450909284908110611ad857611ad861220e565b906000526020600020015490508060088381548110611af957611af961220e565b6000918252602080832090910192909255828152600990915260408082208490558582528120556008805480611b3157611b316121f8565b6001900381819060005260206000200160009055905550505050565b6000611b588361099b565b6001600160a01b039093166000908152600660209081526040808320868452825280832085905593825260079052919091209190915550565b828054611b9d90612168565b90600052602060002090601f016020900481019282611bbf5760008555611c05565b82601f10611bd857805160ff1916838001178555611c05565b82800160010185558215611c05579182015b82811115611c05578251825591602001919060010190611bea565b50611c11929150611c15565b5090565b5b80821115611c115760008155600101611c16565b60006001600160401b0380841115611c4457611c44612224565b604051601f8501601f19908116603f01168101908282118183101715611c6c57611c6c612224565b81604052809350858152868686011115611c8557600080fd5b858560208301376000602087830101525050509392505050565b80356001600160a01b0381168114611cb657600080fd5b919050565b600082601f830112611ccc57600080fd5b61170783833560208501611c2a565b600060208284031215611ced57600080fd5b61170782611c9f565b60008060408385031215611d0957600080fd5b611d1283611c9f565b9150611d2060208401611c9f565b90509250929050565b600080600060608486031215611d3e57600080fd5b611d4784611c9f565b9250611d5560208501611c9f565b9150604084013590509250925092565b60008060008060808587031215611d7b57600080fd5b611d8485611c9f565b9350611d9260208601611c9f565b92506040850135915060608501356001600160401b03811115611db457600080fd5b8501601f81018713611dc557600080fd5b611dd487823560208401611c2a565b91505092959194509250565b60008060408385031215611df357600080fd5b611dfc83611c9f565b915060208301358015158114611e1157600080fd5b809150509250929050565b60008060408385031215611e2f57600080fd5b611e3883611c9f565b946020939093013593505050565b600060208284031215611e5857600080fd5b81356117078161223a565b600060208284031215611e7557600080fd5b81516117078161223a565b600060208284031215611e9257600080fd5b81356001600160401b03811115611ea857600080fd5b6110c584828501611cbb565b600060208284031215611ec657600080fd5b5035919050565b60008060408385031215611ee057600080fd5b8235915060208301356001600160401b03811115611efd57600080fd5b611f0985828601611cbb565b9150509250929050565b60008151808452611f2b81602086016020860161213c565b601f01601f19169290920160200192915050565b60008351611f5181846020880161213c565b835190830190611f6581836020880161213c565b01949350505050565b6001600160a01b0385811682528416602082015260408101839052608060608201819052600090611fa190830184611f13565b9695505050505050565b6020808252825182820181905260009190848201906040850190845b81811015611fe357835183529284019291840191600101611fc7565b50909695505050505050565b6020815260006117076020830184611f13565b60208082526032908201527f4552433732313a207472616e7366657220746f206e6f6e20455243373231526560408201527131b2b4bb32b91034b6b83632b6b2b73a32b960711b606082015260800190565b6020808252818101527f4f776e61626c653a2063616c6c6572206973206e6f7420746865206f776e6572604082015260600190565b60208082526031908201527f4552433732313a207472616e736665722063616c6c6572206973206e6f74206f6040820152701ddb995c881b9bdc88185c1c1c9bdd9959607a1b606082015260800190565b600082198211156120ed576120ed6121cc565b500190565b600082612101576121016121e2565b500490565b6000816000190483118215151615612120576121206121cc565b500290565b600082821015612137576121376121cc565b500390565b60005b8381101561215757818101518382015260200161213f565b83811115610dda5750506000910152565b600181811c9082168061217c57607f821691505b60208210811415610cb457634e487b7160e01b600052602260045260246000fd5b60006000198214156121b1576121b16121cc565b5060010190565b6000826121c7576121c76121e2565b500690565b634e487b7160e01b600052601160045260246000fd5b634e487b7160e01b600052601260045260246000fd5b634e487b7160e01b600052603160045260246000fd5b634e487b7160e01b600052603260045260246000fd5b634e487b7160e01b600052604160045260246000fd5b6001600160e01b031981168114610eb657600080fdfea2646970667358221220126ba01644b440131f51cefa2f58cc0dd7219012ea1b8948ba9abd319b16e4ef64736f6c63430008070033",
  "immutableReferences": {},
  "source": "// SPDX-License-Identifier: MIT\npragma solidity ^0.8.2;\n\n// install first: npm i @openzeppelin/contracts\nimport \"@openzeppelin/contracts/token/ERC721/ERC721.sol\";\nimport \"@openzeppelin/contracts/token/ERC721/extensions/ERC721Enumerable.sol\";\nimport \"@openzeppelin/contracts/token/ERC721/extensions/ERC721URIStorage.sol\";\nimport \"@openzeppelin/contracts/access/Ownable.sol\";\nimport \"@openzeppelin/contracts/utils/Counters.sol\";\n\n\ncontract Cifar is ERC721, ERC721Enumerable, ERC721URIStorage, Ownable {\n    using Counters for Counters.Counter;\n\n    Counters.Counter private _tokenIdCounter;\n\n    uint256 maxToken = 60;\n    uint256 mintPrice = 0.0001 * 10 ** 18; // TODO: 0.0001 ETH -> 0.069 ETH\n    uint256 maxMintableAtOnce = 3;\n    uint256 startIndex = 5; // TODO: random value\n\n    string PROVENANCE_HASH = \"\";\n    string CONCAT_HASH_URI = \"\";\n\n    constructor() ERC721(\"Cifar\", \"C\") {}\n\n    function mintCifar10(uint256 numberOfTokens) external payable {\n        require(numberOfTokens <= maxMintableAtOnce, \"Invalid amount to mint at once\");\n        require(totalSupply() + numberOfTokens <= maxToken, \"Purchase would exceed max supply\");\n        require(mintPrice * numberOfTokens <= msg.value, \"Ether value sent is not correct\");\n        //require(_tokenIdCounter.current() < maxToken);\n        for(uint256 i = 0; i < numberOfTokens; i++) {\n            if (totalSupply() < maxToken) {\n                _safeMint(msg.sender, _tokenIdCounter.current());\n                _tokenIdCounter.increment();\n            }\n        }\n    }\n\n    function _baseURI() internal pure override returns (string memory) {\n        return \"https://ipfs.io/ipfs/\";\n    }\n\n    function _beforeTokenTransfer(address from, address to, uint256 tokenId)\n        internal\n        override(ERC721, ERC721Enumerable)\n    {\n        super._beforeTokenTransfer(from, to, tokenId);\n    }\n\n    function _burn(uint256 tokenId) internal override(ERC721, ERC721URIStorage) {\n        super._burn(tokenId);\n    }\n\n    function tokenURI(uint256 tokenId)\n        public\n        view\n        override(ERC721, ERC721URIStorage)\n        returns (string memory)\n    {\n        return super.tokenURI(tokenId);\n    }\n\n        function supportsInterface(bytes4 interfaceId)\n        public\n        view\n        override(ERC721, ERC721Enumerable)\n        returns (bool)\n    {\n        return super.supportsInterface(interfaceId);\n    }\n\n    function setTokenURI(uint256 tokenId, string memory _tokenURI) external onlyOwner {\n        _setTokenURI(tokenId, _tokenURI);\n    }\n\n    function tokensOfOwner(address _owner) external view returns(uint256[] memory) {\n        uint256 tokenCount = balanceOf(_owner);\n        if (tokenCount == 0) {\n            return new uint256[](0);\n        } else {\n            uint256[] memory result = new uint256[](tokenCount);\n            for (uint256 index; index < tokenCount; index++) {\n                result[index] = tokenOfOwnerByIndex(_owner, index);\n            }\n            return result;\n        }\n    }\n\n    function getMaxNumToken() public view returns (uint256) {\n        return maxToken;\n    }\n\n    function getMintPrice() public view returns (uint256) {\n        return mintPrice;\n    }\n\n    function getStartIndex() public view returns (uint256) {\n        return startIndex;\n    }\n\n    function setProvenanceHash(string memory provenanceHash) external onlyOwner {\n        PROVENANCE_HASH = provenanceHash;\n    }\n\n    function getProvenanceHash() public view returns (string memory) {\n        return PROVENANCE_HASH;\n    }\n\n    function setConcatHashURI(string memory concatHashUri) external onlyOwner {\n        CONCAT_HASH_URI = concatHashUri;\n    }\n\n    function getConcatHashURI() public view returns (string memory) {\n        return CONCAT_HASH_URI;\n    }\n\n    function getMaxMintableAtOnce() public view returns (uint256) {\n        return maxMintableAtOnce;\n    }\n    \n}",
  "sourcePath": "C:\\Users\\pmayr\\Crypto\\basis\\contracts\\Cifar.sol",
  "compiler": {
    "name": "solc",
    "version": "0.8.7+commit.e28d00a7.Emscripten.clang"
  },
  "schemaVersion": "3.4.3",
  "updatedAt": "2021-08-20T01:15:48.759Z",
  "networkType": "ethereum",
  "devdoc": {
    "kind": "dev",
    "methods": {
      "approve(address,uint256)": {
        "details": "See {IERC721-approve}."
      },
      "balanceOf(address)": {
        "details": "See {IERC721-balanceOf}."
      },
      "getApproved(uint256)": {
        "details": "See {IERC721-getApproved}."
      },
      "isApprovedForAll(address,address)": {
        "details": "See {IERC721-isApprovedForAll}."
      },
      "name()": {
        "details": "See {IERC721Metadata-name}."
      },
      "owner()": {
        "details": "Returns the address of the current owner."
      },
      "ownerOf(uint256)": {
        "details": "See {IERC721-ownerOf}."
      },
      "renounceOwnership()": {
        "details": "Leaves the contract without owner. It will not be possible to call `onlyOwner` functions anymore. Can only be called by the current owner. NOTE: Renouncing ownership will leave the contract without an owner, thereby removing any functionality that is only available to the owner."
      },
      "safeTransferFrom(address,address,uint256)": {
        "details": "See {IERC721-safeTransferFrom}."
      },
      "safeTransferFrom(address,address,uint256,bytes)": {
        "details": "See {IERC721-safeTransferFrom}."
      },
      "setApprovalForAll(address,bool)": {
        "details": "See {IERC721-setApprovalForAll}."
      },
      "symbol()": {
        "details": "See {IERC721Metadata-symbol}."
      },
      "tokenByIndex(uint256)": {
        "details": "See {IERC721Enumerable-tokenByIndex}."
      },
      "tokenOfOwnerByIndex(address,uint256)": {
        "details": "See {IERC721Enumerable-tokenOfOwnerByIndex}."
      },
      "totalSupply()": {
        "details": "See {IERC721Enumerable-totalSupply}."
      },
      "transferFrom(address,address,uint256)": {
        "details": "See {IERC721-transferFrom}."
      },
      "transferOwnership(address)": {
        "details": "Transfers ownership of the contract to a new account (`newOwner`). Can only be called by the current owner."
      }
    },
    "version": 1
  },
  "userdoc": {
    "kind": "user",
    "methods": {},
    "version": 1
  }
}